S01600003230313530385F6E6F736869726F2E737265637D
S11300001EC037C035C034C033C032C045C04CC137
S11300102FC02EC02DC02CC02BC02AC029C028C080
S113002027C026C025C0CEC0CFC0D0C0D1C0D2C04A
S1130030D4C0D6C0D8C0DAC0DCC0DEC0E0C0112451
S11300401FBECFEDCDBF10E0A0E6B0E0E0EFF7E0DB
S113005002C005900D92A636B107D9F720E0A6E6B6
S1130060B0E001C01D92A53BB207E1F77CD0BEC34E
S1130070C7CF1F920F920FB60F9211248F9381E076
S1130080809368008F910F900FBE0F901F9018956A
S11300905D9BFECF8CB908951F920F920FB60F92FD
S11300A011242F933F934F935F936F937F938F9379
S11300B09F93AF93BF93EF93FF93809166009091CA
S11300C067008A309105B9F484E7E2DF1092670093
S11300D01092660013BE10928F0010928E00109240
S11300E08D0010928C001092690010928B00109277
S11300F08A00939A05C001969093670080936600E6
S1130100FF91EF91BF91AF919F918F917F916F91EB
S11301105F914F913F912F910F900FBE0F901F90C1
S1130120189512B888E089B9599A8EE083B988E99C
S11301308AB908958FB980E48EB9769BFECF8FB1CA
S1130140089588E18DB9BE9A87B38F7587BB88B34C
S1130150806A88BB82E085BF80E48BBF89B78260F8
S113016089BF13BE0895DDDF89E581BF939A8B9A19
S1130170E8DF789482E58CDF0F2EF8E9EF2EF0E0CB
S1130180FF2EF02D0F2EF4E9CF2EF0E0DF2EF02D10
S1130190C0E9D0E0809168008823E1F31092680000
S11301A080916900811105C087E5C4DF80936900EF
S11301B0F1CF90E0FC013397EC30F10518F5ED5EDA
S11301C0FF4F09948B811FC08A811DC089811BC088
S11301D0888119C0F601838116C0F601828113C09B
S11301E0F601818110C0F60180810DC0F701838181
S11301F00AC0F701828107C0F701818104C0F701B9
S1130200808101C082E396DF182F8091690040DF6E
S1130210909169002DEF290F2B3030F4133021F425
S11302209F5F90936900B6CF10926900B3CFCF92CD
S1130230DF92EF92FF921616170674F5FC019C01EB
S1130240260F371F60E070E0CB01DC01CB01880F83
S1130250991FAA1FBB1F6C017D01CC0CDD1CEE1C79
S1130260FF1CCC0CDD1CEE1CFF1C8C0D9D1DAE1D5B
S1130270BF1DC190D12C40E3C41AD108EE24D7FC91
S1130280E094FE2CBC01CD016C0D7D1D8E1D9F1DC7
S1130290E217F307D1F603C060E070E0CB01FF90F2
S11302A0EF90DF90CF9008951F920F920FB60F92A8
S11302B01124CF92DF92EF92FF922F933F934F93AB
S11302C05F936F937F938F939F93AF93BF93CF93DA
S11302D0DF93EF93FF93AFE9B0E08C918093A0009C
S11302E0EEE9F0E080818C93ADE9B0E08C918083FD
S11302F0ECE9F0E080818C938CB1808380918E0056
S113030090918F00019709F43AC2A0E6B0E081EA27
S113031090E020E030E051914D91541302C02F5FE2
S11303203F4FE817F907B9F72530310509F047C2FF
S113033081E090E090938F0080938E0020C28091A2
S1130340AE008134E1F4E3EAF0E0A3E8B0E089EA46
S113035090E021912D93E817F907D9F78091AA002D
S113036080937F008091AB00809380008091AC00EB
S11303708093810010928B0010928A0094C086357D
S113038009F085C0E3EAF0E0A3E8B0E089EA90E090
S113039021912D93E817F907D9F78091AA0080934A
S11303A07F008091AB00809380008091AC008093AB
S11303B0810066E070E083E890E039DF6B017C0146
S11303C0CC0CDD1CEE1CFF1CCC0CDD1CEE1CFF1C3D
S11303D0CC0CDD1CEE1CFF1CD701C601880F991F35
S11303E0AA1FBB1F880F991FAA1FBB1FC80ED91EA7
S11303F0EA1EFB1ED701C601880F991FAA1FBB1F47
S1130400880F991FAA1FBB1FC80ED91EEA1EFB1E08
S1130410D701C601880F991FAA1FBB1F880F991FF8
S1130420AA1FBB1FC80ED91EEA1EFB1EC0E9D0E0DE
S1130430C882D982EA82FB8263E070E08FE790E0B1
S1130440F6DEC60ED71EE81EF91EC882D982EA82DD
S1130450FB821092940010929500109296001092D4
S11304609700109298001092990010929A0010929E
S11304709B00939810928F0010928E0010928D0022
S113048010928C0010928B0010928A000CC0109273
S11304908F0010928E0010928D0010928C0010929A
S11304A08B0010928A0080918C0090918D0088318D
S11304B0910529F58091A20080937A008091A30090
S11304C080937B008091A40080937C008091A500A0
S11304D080937D008091A700809375008091A8008F
S11304E0809376008091A900809377008091AA0080
S11304F08093780010928B0010928A0060C18697D6
S113050009F05DC1E4EAF0E0AFE6B0E089EA90E02A
S113051021912D93E817F907D9F78091AA008093C8
S11305206A008091AB0080936B008091AC00809353
S11305306C008091AD0080936D0066E070E083E80C
S113054090E075DE6B017C01CC0CDD1CEE1CFF1C05
S1130550CC0CDD1CEE1CFF1CCC0CDD1CEE1CFF1CAB
S1130560D701C601880F991FAA1FBB1F880F991FA7
S1130570AA1FBB1FC80ED91EEA1EFB1ED701C60147
S1130580880F991FAA1FBB1F880F991FAA1FBB1F83
S1130590C80ED91EEA1EFB1ED701C601880F991F7B
S11305A0AA1FBB1F880F991FAA1FBB1FC80ED91EE5
S11305B0EA1EFB1EC0E9D0E0C882D982EA82FB822F
S11305C063E070E08FE790E032DEC60ED71EE81ECF
S11305D0F91EC882D982EA82FB8264E070E08AE76D
S11305E090E025DE6B017C01CC0CDD1CEE1CFF1CB5
S11305F0CC0CDD1CEE1CFF1CCC0CDD1CEE1CFF1C0B
S1130600CC0CDD1CEE1CFF1CD701C601880F991F02
S1130610AA1FBB1F880F991FAA1FBB1FC80ED91E74
S1130620EA1EFB1ED701C601880F991FAA1FBB1F14
S1130630880F991FAA1FBB1FC80ED91EEA1EFB1ED6
S1130640D701C601880F991FAA1FBB1F880F991FC6
S1130650AA1FBB1FC80ED91EEA1EFB1ED701C60166
S1130660880F991FAA1FBB1F880F991FAA1FBB1FA2
S1130670C80ED91EEA1EFB1EC4E9D0E0C882D98286
S1130680EA82FB8264E070E085E790E0D0DDC60E8C
S1130690D71EE81EF91EC882D982EA82FB8265E071
S11306A070E08FE690E0C3DD6B017C01CC0CDD1CB7
S11306B0EE1CFF1CCC0CDD1CEE1CFF1CCC0CDD1C4A
S11306C0EE1CFF1CCC0CDD1CEE1CFF1CD701C6016C
S11306D0880F991FAA1FBB1F880F991FAA1FBB1F32
S11306E0C80ED91EEA1EFB1ED701C601880F991F2A
S11306F0AA1FBB1F880F991FAA1FBB1FC80ED91E94
S1130700EA1EFB1ED701C601880F991FAA1FBB1F33
S1130710880F991FAA1FBB1FC80ED91EEA1EFB1EF5
S1130720D701C601880F991FAA1FBB1F880F991FE5
S1130730AA1FBB1FC80ED91EEA1EFB1EC8E9D0E0C3
S1130740C882D982EA82FB8264E070E08AE690E0A3
S11307506EDDC60ED71EE81EF91EC882D982EA8253
S1130760FB82939810928F0010928E0010928D004D
S113077010928C0010928B0010928A0020C083B7D4
S1130780846083BF20918A0030918B00F901EF557A
S1130790FF4F80919C00808380918C0090918D000C
S11307A0019690938D0080938C002F5F3F4F309380
S11307B08B0020938A000E9709F075CEC0CDFF916F
S11307C0EF91DF91CF91BF91AF919F918F917F91E5
S11307D06F915F914F913F912F91FF90EF90DF9038
S11307E0CF900F900FBE0F901F901895F894FFCFE5
S10907F0434D5250470086
S9030000FC
